:020000040000fa
:080000000002040000000000f2
:020000040000fa
:10000800c8020000c8020000c8020000c8020000c0
:10001800c8020000c8020000c8020000c8020000b0
:10002800c8020000c8020000c8020000c8020000a0
:10003800c8020000c8020000c8020000c802000090
:10004800c8020000c8020000c8020000c802000080
:10005800c8020000c8020000c8020000c802000070
:10006800c8020000c8020000c8020000c802000060
:10007800c8020000c8020000c8020000c802000050
:10008800c8020000c8020000c8020000c802000040
:10009800c8020000c80200001e1d0000c8020000bf
:1000a800c8020000c8020000c8020000c802000020
:1000b800c8020000c8020000c8020000c802000010
:1000c800c8020000c8020000c8020000c802000000
:1000d800c8020000c8020000c8020000c8020000f0
:1000e800c8020000c8020000c8020000c8020000e0
:1000f800c8020000c8020000c8020000c8020000d0
:10010800c8020000c8020000c8020000c8020000bf
:10011800c8020000c8020000c8020000c8020000af
:10012800c8020000c8020000c8020000c80200009f
:10013800c8020000c8020000c8020000c80200008f
:10014800c8020000c8020000c8020000c80200007f
:10015800c8020000c8020000c8020000c80200006f
:10016800c8020000c8020000c8020000c80200005f
:10017800c8020000c8020000c8020000c80200004f
:10018800c8020000c8020000c8020000c80200003f
:10019800c8020000c8020000c8020000c80200002f
:1001a800c8020000c8020000c8020000c80200001f
:1001b800c8020000c8020000c8020000c80200000f
:1001c800c8020000c8020000c8020000c8020000ff
:1001d800c8020000c8020000c8020000c8020000ef
:1001e800c8020000c8020000c8020000c8020000df
:0801f800c8020000c80200006b
:020000040000fa
:10020800c8020000c8020000c8020000c8020000be
:10021800c8020000c8020000c8020000c8020000ae
:10022800c8020000c8020000c8020000c80200009e
:10023800c8020000c8020000c8020000c80200008e
:10024800c8020000c8020000c8020000c80200007e
:10025800c8020000c8020000c8020000c80200006e
:10026800c8020000c8020000c8020000c80200005e
:10027800c8020000c8020000c8020000c80200004e
:10028800c8020000c8020000c8020000c80200003e
:10029800c8020000c80200001e1d0000c8020000bd
:1002a800c8020000c8020000c8020000c80200001e
:1002b800c8020000c8020000c8020000c80200000e
:1002c800c8020000c8020000c8020000c8020000fe
:1002d800c8020000c8020000c8020000c8020000ee
:1002e800c8020000c8020000c8020000c8020000de
:1002f800c8020000c8020000c8020000c8020000ce
:10030800c8020000c8020000c8020000c8020000bd
:10031800c8020000c8020000c8020000c8020000ad
:10032800c8020000c8020000c8020000c80200009d
:10033800c8020000c8020000c8020000c80200008d
:10034800c8020000c8020000c8020000c80200007d
:10035800c8020000c8020000c8020000c80200006d
:10036800c8020000c8020000c8020000c80200005d
:10037800c8020000c8020000c8020000c80200004d
:10038800c8020000c8020000c8020000c80200003d
:10039800c8020000c8020000c8020000c80200002d
:1003a800c8020000c8020000c8020000c80200001d
:1003b800c8020000c8020000c8020000c80200000d
:1003c800c8020000c8020000c8020000c8020000fd
:1003d800c8020000c8020000c8020000c8020000ed
:1003e800c8020000c8020000c8020000c8020000dd
:0803f800c8020000c802000069
:020000040000fa
:10040000afa320000eff27000e01880000000000af
:100410000c000700a0d52100010020000f000700fc
:10042000000020000000e000020032000000020096
:1004300000000000041c0200000000000040da0080
:100440000000fe00e02920000000e0000200320071
:10045000002020009001880000000600a102880012
:10046000800078000000eb001a003700e2804000b6
:1004700054a0b4009101ba00e280400054a0b4003e
:100480009102ba00e280400054a0b4000002eb00e8
:10049000472bde00f507b200a6018800602ce100c2
:1004a00008003a000049eb000201e80002003900b0
:1004b0003420ec0002f0a0008301e900f9ff3e00c7
:1004c000040037006128e100010032000082eb00e7
:1004d000040007001101ba000200e000e3ff3a0047
:1004e0000000060004d0a300e20f49001c00390000
:1004f000810278003549ba000201e80002003900a3
:100500003420ec0002f0a0008301e9000f0032006b
:100510002549ba000201e800020039003420ec004d
:1005200002f0a0008301e900080032000400e000ae
:100530000600320015c9ba000201e80002003900c5
:100540003420ec0002f0a0008301e9008180e80083
:1005500054a0b4000300e000e2ff3a0000000600ef
:100560009102ba00055978008301e900f7ff3200d3
:10057000c82ade00055978008301e900f3ff320044
:100580000400e000f1ff320011d9ba00eeff37009d
:100590000040da000000fe001004b1000700350042
:1005a0009001b100040034007000b1000300350078
:1005b0009001b10001003c001000050000000500a2
:1005c0006900e100040035006d00e1000300340023
:1005d0000002b1000100320000000500100005001b
:1005e0000000fa001111800000102000008160005e
:1005f00010c0b3008000eb00810f510001003200f9
:100600000040eb000080fa00000006000000fa0045
:1006100091118000001020000081600010c0b30024
:100620008000eb00810f5100010032000040eb0020
:100630000080fa00000006000000fa00911280001d
:10064000001020000081600010c0b3008000eb00ab
:10065000810f5100010032000040eb000080fa00e1
:10066000000006000000fa0021e2a9009560a90040
:100670009580a9008560a9008580a9000080fa0006
:10068000000006000000fa0031e2a90097c0a900ae
:1006900097e0a90087c0a90087e0a9000080fa00c0
:1006a000000006000000fa0051e2a9009e40a900e7
:1006b0009e60a9008e40a9008e60a9000080fa000b
:1006c000000006000200fa00000f78008560a90013
:1006d0008580a9001e007800004078006740600017
:1006e00067406000674060000080fb0067006000ba
:1006f0004c00dd0042058000f1ff28008100610010
:100700000080700040058800000720001e00600087
:100710004400de0000407800674060000080fb007d
:10072000670060005205800081ff2f00810061009a
:1007300000807000500588009e007800688060008e
:100740004300de0000407800614060000080fb0054
:10075000610060004b00dd00a2048000f17f2f00eb
:100760008100610000807000a00488000008200063
:100770001e0060004700de0000407800614060001d
:100780000080fb00610060004c00dd00a2048000de
:10079000f1ff2e008100610000807000a00488003d
:1007a0000080fa00000006000200fa00000f780046
:1007b00087c0a90087e0a9001e00780000407800eb
:1007c0006740600067406000674060000080fb0099
:1007d000670060004800dd0092058000f18f2f0067
:1007e00081006100008070009005880000072000f3
:1007f0001e0060004400de0000407800674060009a
:100800000080fb00670060004c00dd009205800066
:10081000f1ff2800810061000080700090058800d1
:100820009e007800688060004300de000040780091
:10083000614060000080fb00610060004e00dd0050
:10084000b2048000f1ff2b00810061000080700085
:10085000b0048800000820001e0060004700de0091
:1008600000407800614060000080fb004f00dd0028
:10087000b2048000f1ff2700810061000080700059
:10088000b00488000080fa00000006000200fa00b0
:10089000000f78008e40a9008e60a9001e0078002d
:1008a000004078006740600067406000674060007b
:1008b0000080fb00670060004800dd0062068000e9
:1008c000f18f2f00810061000080700060068800b9
:1008d000000720001e0060004400de000040780099
:1008e000674060000080fb00670060004c00dd0096
:1008f00062068000f1ff2800810061000080700026
:10090000600688009e007800688060004300de007a
:1009100000407800614060000080fb0061006000e2
:100920004200dd00f2048000b1ff2f008100610071
:1009300000807000f0048800000820001e006000a5
:100940004700de0000407800614060000080fb004e
:10095000610060004300dd00f204800071ff2f00a1
:100960008100610000807000f00488000080fa00bf
:10097000000006000000fa0010118000004078001e
:10098000614060000080fa00000006000000fa00ec
:100990009011800000407800614060000080fa0003
:1009a000000006000000fa0090128000004078006d
:1009b000614060000080fa00000006000800fa00b4
:1009c0001007980021079800320798003e00900019
:1009d000401188001e009000001188002e00900039
:1009e000101188000200370030118000004f78009d
:1009f00010118000e10060000000eb00808f5000cb
:100a0000f9ff3a008560a9000080fa0000000600a6
:100a10000800fa0010079800210798003207980094
:100a20003e009000c01188001e00900080118800d8
:100a30002e0090009011880002003700b011800055
:100a4000004f780090118000e10060000000eb0092
:100a5000808f5000f9ff3a0087c0a9000080fa009b
:100a6000000006000800fa0010079800210798000f
:100a7000320798003e009000c01288001e009000cf
:100a8000801288002e00900090128800020037002b
:100a9000b0128000004f780090128000e1006000ea
:100aa0000000eb00808f5000f9ff3a008e40a90053
:100ab0000080fa00000006000400fa001007980009
:100ac0001e009000000f780080118000e60060009a
:100ad00060002000808f500021003a000d00370098
:100ae0000000000091118000002020008080600044
:100af0000000eb00808f5000faff3a001e009000cb
:100b000010007800a01188001e0090000080e8000e
:100b1000100798001e009000900078000000eb0085
:100b2000808f5000eeff3a001300370000000000f5
:100b30009111800000202000808060000000eb0008
:100b4000808f5000faff3a001e00780010407800b5
:100b50000000fb00a01188001e0fe8000100370014
:100b6000000000001e007800904078000040eb007c
:100b700080cf5000edff3a000080fa000000060030
:100b80000400fa00100798001e009000000f780083
:100b900080128000e600600060002000808f50001e
:100ba00021003a000d003700000000009112800083
:100bb00000202000808060000000eb00808f50004b
:100bc000faff3a001e00900010007800a012880082
:100bd0001e0090000080e800100798001e009000a2
:100be000900078000000eb00808f5000eeff3a008c
:100bf0001300370000000000911280000020200048
:100c0000808060000000eb00808f5000faff3a0007
:100c10001e007800104078000000fb00a012880041
:100c20001e0fe80001003700000000001e007800e1
:100c3000904078000040eb0080cf5000edff3a007c
:100c40000080fa00000006000000fa000011800099
:100c5000e600600060002000808f500002003a0033
:100c6000301180000300370031118000f00f2000a8
:100c7000008060000080fa00000006000000fa001a
:100c800080118000e600600060002000808f50002e
:100c900002003a00b011800003003700b11180005b
:100ca000f00f2000008060000080fa0000000600c5
:100cb0000000fa0080128000e60060006000200062
:100cc000808f500002003a00b0128000030037000d
:100cd000b1128000f00f2000008060000080fa0058
:100ce000000006000200fa00000f780000118000ea
:100cf000e600600060002000808f500003003a0092
:100d00001e0078002011880003003700f00f20003b
:100d10001e006000201188000080fa00000006001c
:100d20000200fa00000f780080128000e6006000e8
:100d300060002000808f500003003a001e00780001
:100d4000a012880003003700f00f20001e00600092
:100d5000a01288000080fa000000060003f0a20044
:100d6000889fbe008a9fbe008c1f7800020107008a
:100d7000090133006450e1004f0032006420e100bb
:100d80005200320003826c0007003b000905d000ce
:100d90000306d000820f54000c065d0002003900eb
:100da0000200320089017800030678008582550030
:100db00004003d000003fd008103fd008502ea0000
:100dc0008b854200840f720002003b00600010001f
:100dd000e08018006011b8000005eb007a28e100ff
:100de0000a00390006007800c75ddd00f707b20091
:100df000878075002d003700828171000a0178001c
:100e0000610560008180d1000080d3008502e90087
:100e1000f9ff3b00060440008784480002003b00c5
:100e200060041400e0841c000988a300070032005d
:100e30008a81710082817100610164008904d1009e
:100e40000884d3008b05e800170037000978a30059
:100e500013003a000b00e000130034008b05e9009a
:100e60000804440089844c000a4474000978a300f3
:100e70000d003a000b00e000070034008b05e9008c
:100e80000804440089844c0001003a000b00200053
:100e90000978a300f7ff32000001eb0002003700e1
:100ea000828171000a017800780007000cf0a70029
:100eb00001f0a000c10037006420e10002003a0008
:100ec000838f6c00c10033000801be000200be0029
:100ed000ba0037000001be00920007000470a700ae
:100ee00003f0a10003f8a30013003a006509b10064
:100ef00010003200090035006928e10002003500c9
:100f0000010028000000050000004000818048002a
:100f10008502e900fcff3a0000000600f88f42005d
:100f2000050035008100d1000080d3008502e80073
:100f3000fcff3a00000006008000eb000000050006
:100f40006011b800eb0037000400200000003700fb
:100f5000889fbe008a9fbe008c1f78004f26dd0050
:100f6000850007008c0033006120e100430032005f
:100f70006250e10041003e003e0039006420e10083
:100f80003c003200058255000f003b000402e800df
:100f900038003a00800f5300818f5b003500340029
:100fa0000800be0003f0a10001f0a60003f0a000bd
:100fb0000cf0a7006aff070080003700060343001b
:100fc00087834b000c4646000005530081855b007b
:100fd000020033000a03be000c00a0000402e90076
:100fe000f6ff3b00850578000602430087824b0030
:100ff00004003a006000b80009f0a70001f0a0006a
:101000006e0037000002520081825a000704e0009f
:10101000040033000603430087834b008b05e9007f
:10102000faff3700090578000604be000203be007f
:101030006011b80015000700e00f5200e08f5a0061
:101040000700350002003c000c08a3000400320039
:101050000601be0003f0a0000cf0a70040ff07004f
:101060000a85680001f0a1000af0a70001f0a000c5
:10107000520037000800be00500037001002200068
:101080000cf0a600c05188005000370081002000fd
:10109000618055000b003d000b00200061fe2f0019
:1010a0000100e1001d0034008281710061016400d3
:1010b0008904d1000884d3000000e800faff3a0058
:1010c00071002000610064000300700002006000f5
:1010d0000900320061044400e0844c000988a50046
:1010e000050032008b05e8006808e10002003a00c4
:1010f0008904d1000884d300f20f20000258e100d7
:1011000005003d00c75ddd00f907b200898075006c
:1011100008007800000006000bf827008b0078001c
:1011200000000500c70ade00f107b200f50fb200ab
:1011300008003200e1cf4200020032000170a0003e
:1011400024000500810f7000010032000408050032
:1011500044000500810f700002003a0014000500f1
:101160008502e9000000400081c04800fcff3b0010
:101170000170a000240005000004be00e9ff070084
:101180000003be000405be000200be00e5ff07002c
:10119000844f7500000006000200be006450e100ac
:1011a000050036006420e100020036000968a30053
:1011b00001003a000800be000160a0004f06780060
:1011c0004f05be004f04be0000000600f0ff2f00d8
:1011d000f1ff2700f9ff3700889fbe008a9fbe00fd
:1011e0008c1f7800e4ff0700ebff330003866c00e0
:1011f0006450e100240032006420e1002700320046
:101200006150e100220032006120e1002100320043
:101210008b854200eb07b1000134b800003ab800fa
:101220000804420089844a00013ab8000030b8003e
:101230008880400009014a0004003300000040009b
:1012400081804800020149008b05e900c909dd00e1
:10125000830170000100320013002000c814de007a
:101260004814dd004709de001200b200c808de00a5
:101270000884700085ff070001f0a1000cf0a700b2
:1012800001f0a000cdff37006120e100cfff320068
:101290000801be000200be00f7ff37006150e10008
:1012a000fcff3a00c9ff37006022b80006022000a8
:1012b0000000d0008180d2000482d2008582d2005a
:1012c0000000a0000202520083825a000300310095
:1012d0000202420083824a000000a1000603e900e6
:1012e000f3ff3a0000000600efff07000400be0015
:1012f00000000600889fbe008a9fbe00008270002a
:101300000402710004827100260032000004be0055
:101310000200be006011b8006b0920009502200099
:101320000182cf000a0039000541b1000082cf00e0
:10133000070039000541b1000982cf0004003900df
:101340000541b1000882cf00010039000541b1001c
:1013500005425200120032000a003b0082817100f7
:10136000610164008100d1000080d3008984d30032
:101370000884d3008b05e8000442e800f7ff3a0038
:10138000070037000804440089844c00000048002e
:10139000818048008b05e9000442e900f9ff3a002a
:1013a0003aff07004f05be004f04be0000000600d4
:1013b000e4874700889fbe008a9fbe008c9fbe00c6
:1013c0008e1f78000004780081067800e08f5600b8
:1013d00003003200880e7800010037000804e8009e
:1013e0009804fb000900780075fc0700e00f50002e
:1013f000faff3a00d1022000818f540008003a0021
:101400000804e8001ac0b3006000b8008005eb00d3
:101410000b067800e4c2b3000ecdb300060037001f
:1014200000457800b0022000808f5400f6ff3a009b
:101430000804e800f4ff37007001650004003a007a
:10144000984f120002003a000a44a0001b00370027
:10145000984478000901fb000203b100e90f510034
:1014600018003e000a14a0000a01fb00e98f550095
:101470000f00320070016100010032000c06e9002b
:101480008b05e800a20020000300200084bf9f001d
:10149000640107000ec144000281fb00030020002c
:1014a00002004000838048000fba97000300370015
:1014b0007001610001003a000c06e8000804e80031
:1014c000ddff370052c6b30082cf54000400320063
:1014d0008005eb0052c4b30082cf54002e003a00c6
:1014e00058417800d3c2b300834f510002003a0044
:1014f0000a34a00003003700b3c2b300834f510089
:1015000004003a000804e800020037000804e8007c
:101510000100370004c3b3009841780002c3b30050
:1015200084cf5100f9ff32000302fb000403b10035
:101530008005eb00e90f520014003e0082c5510007
:101540008b85fb00d84178000302fb000403b10047
:10155000e90f52000d003e006a5ab90082c15100e5
:101560008385fb0084854500d84178000302fb0099
:101570000403b100e90f520004003e006a5ab900aa
:1015800002c151008285fb00848545006801650029
:10159000010032008b05ea00e08f560003003200a4
:1015a0006201650001003200880e78001a01070010
:1015b0000004be006011b8001301070000017800ac
:1015c0006000b800e00f5100560032008c854500e5
:1015d00032f82f00828f550003003d0022022000c8
:1015e000c25188004f00370000082000808f55004e
:1015f0000700340020022000c0518800610565000a
:1016000043003a000000200001f8270045003700a1
:10161000e08f55001a003d008b05ea0006003700f8
:10162000922f2000530125000800be00b4000700df
:101630000004be00ea855500e98f5500f8ff3c0024
:101640000600370002002000031224000800be003c
:10165000ab0007000004be008b05e900e08f5500d9
:10166000f8ff3a0002002000030820000800be0036
:10167000e5000700e00f500020003d001a00370091
:10168000e08f550007003a001c003700922f200021
:10169000530125000800be00cffe07000004be0075
:1016a000ea855500e9cf5500f8ff3e0006003700f7
:1016b00002002000031224000800be00c6fe07003e
:1016c0000004be008b05e900e08f5500f8ff3a00ea
:1016d000f2ff2f00f3f727000800be00cc00070040
:1016e000e00f500005003400610565000b003a0072
:1016f00000002000010820000a0037006105650095
:101700000100320009f0a2000800be000500370009
:101710000000200001f82f00020037000000200028
:10172000010828004f0778004f06be004f05be0095
:101730004f04be004f00b100000006008000eb0027
:101740001bff370002c2b300010037000000e800b1
:101750009040780082cf5000fcff3200e9cf50006b
:10176000faff3200d2c2b30082cf500003003a0029
:101770000000e80012c0b300050037000041eb0094
:10178000b3c2b30083cf500001003a000000e8006c
:101790008000eb00050037006a0ab90001fd2f0048
:1017a00084804000838040000000e8009001fb003e
:1017b00004fd2f0003024200e90f5200f6ff36003d
:1017c000e04f5100010032008100ea000100780082
:1017d0000000060010417800814f510005003200e2
:1017e000e04f5100020032000000e800f9ff37002e
:1017f0000000eb0000000600800078000041eb00d4
:10180000b14f1100fdff3a000080ea000080400067
:101810000000060080017800060037000201e900a0
:101820001142780084597800e04f520006003200df
:101830008100e800e00f5100f8ff3a000200370095
:101840008059eb00010178008200e900e00f5100af
:10185000fbff3a0000000600889fbe000004be00a7
:101860000b00370009007800e3ff07000001780053
:101870000800be000f000700e00f50000a00320011
:101880000800e8009900fb00d2ff07000004780080
:10189000e00f5400040032000040eb00984f1000ad
:1018a000f0ff3a000004eb00080078004f04be008f
:1018b000000006000d00370010417800e04f510095
:1018c00002003200914f5100050032000281fb00fe
:1018d000914078000180fb000000510000000600ec
:1018e0000000e8008100e800030178008201e900bf
:1018f000e00f5100f0ff3a000200780000000600ff
:10190000889fbe008a9fbe008c1f78001afe0700c9
:1019100021fe330003866c006450e1002e0032008b
:101920006420e100330032006150e1002f003200fa
:101930006120e1003100320085855500eb07b000e1
:1019400009002000080420000500370008044400b6
:1019500089844c000a0031000603430087834b0052
:101960000001530081815b00f8ff33000203be00d9
:101970000800a0000804440089844c00f6ff3900e8
:10198000c639dd008301730001003200130020001e
:101990008904d1000884d3000998a300050032000f
:1019a0000800a7000300a0008904d1000884d30028
:1019b0008b05e8008904d1000884d3000001eb0006
:1019c0000281d200b1fd070001f0a1000cf0a700d8
:1019d00001f0a000f9fd37006420e100fbfd3200ba
:1019e0000801be000200be00f7ff37006120e100e1
:1019f000f6fd32006000b800f3ff37000000200061
:101a000001f82700f0ff3700140020000b0037001a
:101a1000f4ff2f00090037004f89de0082017800b3
:101a200021003700020ab900001bb9000200b8000b
:101a3000810042008100430000000600889fbe0034
:101a40008a9fbe00841f7800cbfd07004f007800fe
:101a500011003300f0ff2f00838f6c0006003b0065
:101a6000040565000a00a7000800370009f0a60079
:101a70001000200008003700820f5400838f5c00a4
:101a8000030039001000200001003e00000020008b
:101a900009f0a7000000ea004f05be004f04be0099
:101aa0000000e00000000600881f780003047800b2
:101ab0000300e00007003d0060001000e080180017
:101ac00060011900e081190002003b0001f02d00c7
:101ad0000300370007fe070008f0a70001f0a00090
:081ae0004f047800000006002d
:020000040000fa
:101ae8002447000050470000474100000024000040
:101af80047500000524d00004300000024500000f1
:101b08004d5400004b310000383500002c300000e7
:101b18002a320000320d00000a00000024500000a4
:101b28004d5400004b300000303100002c310000d3
:101b3800383500002c3300002a3300004300000031
:101b4800245000004d5400004b3100003833000091
:101b58002a330000380d00000a000000245000005d
:101b68004d5400004b4c00004f470000000a000095
:101b78005354000041520000544900004e470000f1
:101b8800204c00004f470000474900004e47000026
:101b98002e2e00002e2e00000020000053540000be
:101ba800415200005445000044210000002000007c
:101bb8006e6f00002072000065730000706f0000f7
:101bc8006e730000652000003a2800000024000021
:101bd800504d0000544b000036320000322c0000fb
:101be800312a0000323900000d0a000000540000bc
:101bf8006869000073200000636f000064650000de
:101c080020770000696c00006c200000455200003d
:101c18004153000045200000746800006520000062
:101c28006461000074610000206c00006f670000b0
:101c380020730000746f00007265000064200000cb
:101c4800696e0000207400006865000020460000ee
:101c58004c41000053480000202d00002050000097
:101c6800657200006d6100006e6500006e74000012
:101c78006c790000210a000000240000504d00008b
:101c8800544b000031380000342c0000312a000089
:101c9800323200000d0a00000045000072610000a9
:101ca80073650000642100000a0000000a0a0000b1
:101cb8004c6f000067200000230000002c2000006b
:101cc8004f760000657200006c610000702c000007
:101cd800200000002c200000467500006c6c0000fd
:101ce80020530000746f0000702c0000204c00008e
:101cf8006f670000676900006e6700000020000041
:101d0800416c000077610000797300004c6f00009f
:101d1800636100007465000000200000466900004f
:101d2800784f00006e6c000079000000204e000023
:101d38006f7200006d6100006c0000002049000017
:101d48006e74000065720000766100006c0000008f
:101d58002044000069730000746100006e63000095
:101d680065000000205300007065000065640000f5
:101d7800002c0000204300006f6e00007465000016
:101d88006e740000200000002c200000496e000046
:101d98007465000072760000616c0000200000008d
:101da80020730000656300002c20000044690000d7
:101db80073740000616e000063650000200000007d
:101dc800206d00002c2000005370000065650000a5
:101dd80064200000002000006d2f0000732c00001c
:101de8002053000074610000747500007320000027
:101df800004c00004f470000474900004e470000d4
:101e08002c200000004f0000464600002c20000057
:101e18000020000052650000636f0000726400003b
:101e2800732c0000200000002520000055730000de
:101e380065640000200000000a2d00002d2d000020
:101e48002d2d00002d2d00002d2d00002d2d000022
:101e58002d2d00002d2d00002d2d00002d2d000012
:101e68002d2d00002d2d00002d2d00002d2d000002
:101e78002d2d00002d2d00002d2d00002d2d0000f2
:101e88002d2d00002d2d00002d2d00002d2d0000e2
:101e98002d2d00002d2d00002d2d00002d2d0000d2
:101ea8002d2d00002d2d00002d2d00002d2d0000c2
:101eb8002d2d00002d2d00002d2d00002d2d0000b2
:101ec8002d2d00002d2d00002d2d00002d2d0000a2
:101ed8002d2d00002d2d00002d2d0000000a0000e2
:101ee800546900006d6500003a200000003a0000c7
:101ef800002e00000020000044610000746500000e
:101f08003a200000002f0000002f000032300000af
:101f18000020000046690000783a00002000000018
:101f280020510000756100006c69000074790000a0
:101f38003a200000000a00004c6f000063610000b6
:101f4800746900006f6e00003a200000002c000049
:101f58002000000020530000706500006564000048
:101f6800202800006b6e00006f74000073290000c9
:101f78003a20000000200000416e0000676c00005d
:101f8800653a000020000000204100006c74000049
:101f98006974000075640000653a000020000000c4
:101fa8002053000061740000656c00006c6900003b
:101fb80074650000733a00002000000053740000ac
:101fc80061720000746900006e6700002053000011
:101fd8004d35000031300000304200002043000041
:101fe8006f6d00006d7500006e6900006361000090
:101ff800746900006f6e00002e2e00002e0a00008b
:1020080000000000747200007565000000660000a2
:0c201800616c0000736500000000000017
:020000040000fa
:102024001e00fa00881f7800600f98006e08900068
:10203400f0fd070064005000ee08900000804000ae
:1020440090407800a0c2b30080cf500029003a002d
:102054006e089000e7fd070063005000ee08900052
:1020640000804000104078005d0207000080fb0003
:102074004400dd00100798006e089000ddfd0700a5
:102084000080e900ee0890000080400010407800d5
:10209400530207000080fb009e0090000080400077
:1020a4001007980010c0b300004f78000a003700f2
:1020b4009e4078000180fb00ee0890000080400004
:1020c400104078000000fb009e0090000080680033
:1020d400100798001e4fe8001e4078000084fb00a3
:1020e4006e089000c3fd070064005000800f540088
:1020f400efff390041d728006e089000d5fd070096
:10210400e00f5000b7003200ee089000210798005d
:10211400c10220002e009000adfd07000000e80081
:10212400200798002e00900083fd070030079800d8
:10213400410798003e009000ce00900064fb070029
:1021440050079800610798005e009000ee00900030
:10215400027122000300200052fc070000407800b6
:1021640000e8b7005e009000ee00900002712200cb
:10217400030020005bfc070042062000030020004f
:1021840048fc07000040780001e8b7005e009000ba
:10219400ee009000420620000300200051fc0700de
:1021a4000040780002e8b7000200200003f8230092
:1021b4003e009000ce00900062fb07000200200069
:1021c400a347240003fc070041fb0700000078003c
:1021d40030408800c10220002e0090007cfd0700e2
:1021e4000000e800200798002e00900052fd070030
:1021f4004040880051408800c10220002e00900019
:1022040073fd07000000e800200798002e009000ee
:1022140090407800e0c4b30080cf500003003a003f
:10222400e0c4b30028e8b700120037002e00900085
:102234009040780030c5b30080cf500003003a00ce
:1022440030c5b30028e8b7000a0037002e0090001c
:1022540090407800c0c2b30080cf500003003a0021
:102264000040eb0028e8b700020037000000eb0054
:1022740032013700c10220002e00900054fd0700f7
:102284000000e800200798002e0090002afd0700b7
:102294006040880071408800c10220002e00900038
:1022a4004bfd07000000e800200798002e00900076
:1022b4009040780070c5b30080cf500003003a000e
:1022c40070c5b30029e8b700120037002e00900053
:1022d4009040780050c4b30080cf500003003a000f
:1022e40050c4b30029e8b7000a0037002e0090005c
:1022f40090407800c0c2b30080cf500003003a0081
:102304000040eb0029e8b700020037000000eb00b2
:102314000a013700c10220002e0090002cfd0700a6
:102324000000e800200798002e00900004fd07003c
:10233400004078002ee8b700c10220002e00900073
:1023440023fd07000000e800200798002e009000fd
:10235400fbfc0700004078002fe8b700c102200012
:102364002e0090001afd07000000e80020079800e6
:102374002e009000f0fc07002041880031418800c5
:10238400c10220002e00900011fd07000000e800ab
:10239400200798002e009000e7fc0700a04088006a
:1023a400b1408800c10220002e00900008fd070003
:1023b4000000e80020079800c10220002e009000d1
:1023c40003fd07000000e800200798002e0090009d
:1023d400d9fc07008040880091408800100020004c
:1023e400d6003700b1d728006e08900019fd070009
:1023f400e00f5000d00032006e0890007007980083
:10240400c10220007e009000f1fc07000000e800fb
:10241400700798007e009000c7fc0700000f98002a
:10242400110f98000e0890009e089000a8fa07006b
:10243400200f9800310f98002e089000be089000dd
:10244400027122000300200096fb07000040780080
:1024540000e8b7002e089000be0890000271220028
:10246400030020009ffb0700420620000300200019
:102474008cfb07000040780001e8b7002e089000ac
:10248400be089000420620000300200095fb0700d0
:102494000040780002e8b7000200200003f823009f
:1024a4000e0890009e089000a6fa07000200200083
:1024b400a347240047fb070085fa070000007800c3
:1024c40030408800c10220007e009000c0fc07005c
:1024d4000000e800700798007e00900090407800ab
:1024e40010c4b30080cf500003003a001000200055
:1024f400604188000a0037007e0090009040780018
:1025040060c5b30080cf500003003a000000eb0028
:1025140060418800020037000000eb0087003700ac
:10252400c10220007e009000a9fc07000000e80022
:10253400700798007e0090007ffc070040408800f0
:1025440051408800c10220007e009000a0fc0700da
:102554000000e800700798007e009000904078002a
:10256400e0c4b30080cf500003003a00e0c4b300dd
:1025740028e8b700120037007e00900090407800f1
:1025840030c5b30080cf500003003a0030c5b3001b
:1025940028e8b7000a0037007e00900090407800d9
:1025a400c0c2b30080cf500003003a000040eb00eb
:1025b40028e8b700020037000000eb005f00370096
:1025c400c10220007e00900081fc07000000e800aa
:1025d400700798007e00900057fc07006040880058
:1025e40071408800c10220007e00900078fc070042
:1025f4000000e800700798007e009000904078008a
:1026040070c5b30080cf500003003a0070c5b3001a
:1026140029e8b700120037007e009000904078004f
:1026240050c4b30080cf500003003a0050c4b3003c
:1026340029e8b7000a0037007e0090009040780037
:10264400c0c2b30080cf500003003a000040eb004a
:1026540029e8b700020037000000eb00370037001c
:10266400c10220007e00900059fc07000000e80031
:10267400700798007e0090002ffc0700c04088007f
:10268400d1408800c10220007e00900050fc070069
:102694000000e800700798007e00900026fc070008
:1026a400e0408800f1408800c10220007e009000d4
:1026b40047fc07000000e800700798007e009000c7
:1026c4001dfc070002fa0700400f9800510f980004
:1026d4004e089000de0890000271220003002000e2
:1026e400f0fa07000040780005e8b7004e089000b3
:1026f400de0890000271220003002000f9fa0700ae
:102704004206200003002000e6fa0700004078009b
:1027140004e8b7004e089000de089000420620004e
:1027240003002000effa07000040780003e8b70038
:1027340010002000010037000000eb004f04780077
:102744000080fa00000006000200fa000040eb00de
:10275400004f7800e0418000e00f5000020032009a
:102764001e4078003c00370087f80700e04f500017
:1027740002003a001e407800370037003ef9070097
:10278400004f780040c2b3009e40780080cf5000d4
:1027940008003a007149800036cabf000080fb007f
:1027a400808040000040eb00804878000040eb004f
:1027b40036eab7001e407800ea4f500017003a008e
:1027c4007149800036cabf000080fb008080400051
:1027d4000040eb008048780071498000e0832000cd
:1027e400808f500005003a00608b200070498800fb
:1027f400e08320008049880004003700e083200043
:1028040070498800608b2000804988000040eb00fc
:1028140036eab70010002000904988007249800011
:1028240036cabf008080fb00810041009e487800ca
:102834000040e80036eab70061a320009140780028
:1028440070c7b30080cf50000200360070c7b300d9
:1028540036eab7001e4078000080fa000000060047
:102864000000fa000000eb00904988000000eb0033
:10287400e04188000040eb0036eab700e083200026
:1028840070498800608b2000804988000040eb007c
:102894002fe8b7002fc8bf002ee8b7002ec8bf002e
:1028a40005e8b70005c8bf0004e8b70004c8bf00c6
:1028b40003e8b70003c8bf0002e8b70002c8bf00be
:1028c40001e8b70001c8bf0000e8b7000040eb0012
:1028d4002ae8b7002ac8bf0029e8b70029c8bf0002
:1028e40028e8b7000000eb00604188000000eb001e
:1028f400304088006000b8002041880031418800e1
:10290400204180003141800000418800114188004d
:102914000041800011418000e0408800f1408800bf
:10292400e0408000f1408000c0408800d140880031
:10293400c0408000d1408000a0408800b1408800a1
:10294400a0408000b1408000804088009140880011
:102954008040800091408000604088007140880081
:1029640060408000714080004040880051408800f1
:102974000080fa00000006000200fa00000f780050
:102984000000000020f70700e04f5000fdff3a0070
:102994001e00780047f807000080fa0000000600d7
:1029a4000000fa00904980000080fa000000060050
:1029b4000200fa00000f78001e007800e041880051
:1029c4000080fa00000006000000fa000000eb009e
:1029d40090498800804980000080fa0000000600c9
:1029e4000200fa00004f7800f0c2b3009e40780065
:1029f40080cf500002003c000040eb00170037007d
:102a040090c3b3009e40780080cf500004003c0087
:102a14009e40780000cdb30000c040000f00370096
:102a240000c4b3009e40780080cf500002003c00f8
:102a34000040eb000900370060c4b3009e407800fa
:102a440080cf500004003c009e40780090ccb3003e
:102a540000c040000100370000c0eb000080fa0015
:102a6400000006001c00fa00400f9800215f980047
:102a74000040eb00004f780013003700c8ff070048
:102a8400e00f500010003200cfff0700100798003d
:102a940064004700420120009e0090005cfb070098
:102aa4000040eb00705798001e4fe8006400470098
:102ab400ce08900067fb0700e00f500002003200d0
:102ac40010002000050037002e5890009e4078002a
:102ad40080cf5000e9ff39000000eb000080fa00cd
:102ae400000006000000fa0020d82800a2ff07001a
:102af4000000eb009049880051c0b30020d92800a1
:102b0400d8ff07000080fa00000006001800fa0051
:102b140040da280098ff070051c0b30020db2800ea
:102b2400d0ff0700e00f500002003a000000eb0065
:102b340098003700a4ff0700000f78000040eb0066
:102b4400204798000a0037002e4090000080fb00c8
:102b54000000400000004700640040008080eb005b
:102b6400010878002e4090000040e80020479800bb
:102b74002e409000e94f5000f3ff3600c1022000c0
:102b84001e00780012fb0700000f78000040eb00e5
:102b940020479800550037001e007800e00f5000d1
:102ba400550032001e00780010407800e04f5000bd
:102bb400510032001e00780090407800a0c2b3009b
:102bc40080cf50004c0032001e0fe8002e409000d1
:102bd4000080fb000000400000004700640040004b
:102be4008000eb00010878002f0037002e40900091
:102bf4000081fb002e4090000080fb00000040009c
:102c040000004700200090006a00b90080007800ae
:102c14000200410000004700640040000108780001
:102c24001e00780090407800314798003e409000a4
:102c34000000fb000003b100e90f500011003e004a
:102c44002e4090008080fb002e4090000080fb000e
:102c54000000400000004700200190003e4090002a
:102c64000000fb000000410002fd2f0000014100b4
:102c74000180400000004700640040000208780022
:102c8400080037002e4090008080fb003e409000fa
:102c94000001fb0001804000000047006400400088
:102ca400020878001e0fe8001e00780090407800ab
:102cb400c0c2b30080cf5000090032001e0078006b
:102cc40090407800a0c2b30080cf500004003200ce
:102cd4001e00780010407800e04f5000c3ff3a0017
:102ce4002e4090000040e800204798002e409000bd
:102cf400e94f5000a8ff36002e0090008041880064
:102d04003e0090000040780034e8b7004e00900088
:102d140020f60700e00f5000030032004e00900040
:102d24007005b100400798004e0090000040780004
:102d340035e8b7005e0090000040780036e8b70040
:102d44006e0090000040780037e8b7007e009000e5
:102d54000040780038e8b7000e0890000040780082
:102d640039e8b7009e08900010c0b300e08f50000f
:102d7400010032000040eb003ae8b7002e08900052
:102d8400904188003e089000004078003be8b7007e
:102d9400100020000080fa00000006000000fa0085
:102da40000482800e101200061030700b0db28008f
:102db4008a0207004bff0700e00f500003003200b7
:102dc40010dd28008502070002003700b0dd28006e
:102dd4008202070000902000d10320005403070062
:102de4000080fa00000006000000fa0000902000b5
:102df400d10320004e030700b0de2800defe0700ea
:102e04000080fa00000006000000fa00b0df28008d
:102e14007202070000d022001113200044030700af
:102e240010e42800d4fe070010e528006b02070018
:102e34000080fa00000006000000fa0033ff0700db
:102e4400e00f50006d003200a0e528006302070087
:102e5400804180000001eb00510020002a0107009e
:102e640034c8bf00e04f500003003a0020e62800b9
:102e74005a0207000500370034c8bf00e14f500074
:102e840002003a00e0e628005402070035c8bf00fb
:102e94000080fb006100600000407800e04f5000bb
:102ea4000200320030e828004c02070035c8bf0099
:102eb4000080fb0062006000e00f5000020032005e
:102ec40010e928004502070035c8bf000080fb0058
:102ed40064006000e00f500002003200a0e9280006
:102ee4003e02070035c8bf000080fb006800600098
:102ef400e00f50000200320020ea280037020700e9
:102f040035c8bf000080fb0070006000e00f500077
:102f140002003200c0ea28003002070035c8bf00b2
:102f24008080fb000002200000806000e00f500061
:102f34000200320060eb280028020700d0eb2800d2
:102f44002602070036c8bf000001eb003100200054
:102f54009400070080ec28002002070037c8bf0057
:102f64000001eb00310020008e00070040ed280036
:102f74001a02070038c8bf000001eb00310020002e
:102f84008800070040ee28001402070039c8bf007b
:102f94000001eb003100200082000700f0ee280061
:102fa4000e0207003ac8bf00e04f50000300320091
:102fb400d0ef2800090207000200370070f0280053
:102fc4000602070090418000004078000001eb00f9
:102fd4003100200073000700d0f02800ff01070033
:102fe4003bc8bf000080fb000001eb005100200043
:102ff400c500070080f12800f80107000080fa00ee
:10300400000006000000fa0065fe0700e00f500013
:10301400620032006cfe070001fc0700e00f500064
:103024005e00320000f22800ec01070030f72800af
:10303400ea01070000c8bf001200200021002000a0
:1030440058000700b0f72800e401070001c8bf00da
:10305400120020002100200052000700b0f72800d1
:10306400de01070002c8bf0012002000210020007a
:103074004c000700d0f72800d8010700304080003a
:1030840012002000410020009f000700f0f72800f4
:10309400d201070004c8bf00120020002100200054
:1030a4004000070070f82800cc01070005c8bf00e5
:1030b40012002000210020003a00070090f82800a8
:1030c400c601070003c8bf00120020002100200031
:1030d40034000700d0f82800c001070060418000d8
:1030e4001001070040f92800bc0107002ec8bf00ea
:1030f4000001eb00210020002a000700604180004d
:10310400e00f500025003200f0f92800b301070059
:1031140040408000514080001201070028c8bf00d1
:103124000000fb00fdf60700b0fa2800ab01070021
:1031340060408000714080000a01070029c8bf0078
:103144000000fb00f5f60700e0fa2800a3010700e1
:10315400c0408000d140800002010700f0fb28003d
:103164009e010700e0408000f1408000fd00070060
:1031740080fc280099010700a0408000b140800035
:10318400f800070040fd2800940107002fc8bf0085
:103194000001eb0021002000020007000080fa007b
:1031a400000006000800fa00204798002107980054
:1031b400320798002e009000e20f50001c003400eb
:1031c4002e4090008080fb00803e200000017800ab
:1031d400110009008200d8008000fd008000780002
:1031e4004006200000017800110009008200d80088
:1031f4000003b000000f7800000320009e00780058
:10320400808f500004003e003e009000e00f50000c
:1032140007003200010037000000000005f5070038
:10322400e04f5000fdff3a001e007800bbf6070097
:103234002e009000e10f5000200034002e4090003a
:103244008080fb0040062000000178001100090086
:103254008280d8008000fd00004078008080fb0060
:10326400a000200000017800110009008280d8002d
:10327400004078000080fb000003b000000f7800dd
:10328400000320009e007800808f500004003e0060
:103294003e009000e00f50000a00320001003700a9
:1032a40000000000e3f40700e04f5000fdff3a0087
:1032b4001e00780099f607000300370000000000a4
:1032c4000100370000000000daf40700e04f50006e
:1032d400fdff3a002e4090008080fb00a0002000fb
:1032e40000017800110009008280d8008000fd00f0
:1032f400004078000080fb000003b00087f6070060
:103304000080fa00000006000800fa001007980088
:1033140021079800320798002e009000e40f500017
:10332400150034009e009000007122000001780016
:10333400110009008280d80001032000010f400021
:10334400000320009e007800808f500004003e009f
:103354003e009000e00f50000700320001003700eb
:1033640000000000b3f40700e04f5000fdff3a00f6
:103374001e00780069f607002e009000e30f50004d
:103384001b0034009e0090000071220000017800b0
:10339400110009008280d8008000fd0080007800c0
:1033a400803e200000017800110009008280d800ce
:1033b40001032000010f4000000320009e0078005c
:1033c400808f500004003e003e009000e00f50004b
:1033d40007003200010037000000000095f40700e8
:1033e400e04f5000fdff3a001e0078004bf6070046
:1033f4002e009000e20f50001b0034009e0090004d
:10340400803e200000017800110009008280d8006d
:103414008000fd0080007800400620000001780054
:10342400110009008280d80001032000010f400030
:10343400000320009e007800808f500004003e00ae
:103444003e009000e00f50000700320001003700fa
:103454000000000077f40700e04f5000fdff3a0041
:103464001e0078002df607002e009000e10f50009a
:103474001c0034009e0090004006200000017800eb
:10348400110009008280d8008000fd0080007800cf
:10349400a000200000017800110009008280d800fb
:1034a40001032000010f4000000320009e0078006b
:1034b400808f500004003e003e009000e00f50005a
:1034c4000a003200010037000000000059f4070030
:1034d400e04f5000fdff3a001e0078000ff6070091
:1034e4000300370000000000010037000000000066
:1034f40050f40700e04f5000fdff3a009e0090009a
:10350400a000200000017800110009008280d8008a
:103514008000fd000003b00000f607000080fa0000
:10352400000006000200fa00000f7800000000000e
:1035340040f40700e04f5000fdff3a001e00780001
:10354400e10f500003003a00600029008bf50700ea
:1035540002003700b000290088f507000080fa0057
:10356400000006000800fa002007980031079800c0
:103574002e009000be00900055f60700000f780062
:103584001e007800010020006cf607000001be0058
:103594002e009000be009000eff50700020024000a
:1035a400c36124000bf7070049f6070010079800d1
:1035b400000000001ff40700e04f5000fdff3a0038
:1035c4009e007800007122000001780011000900bb
:1035d4008280d8000003b000d0f50700000000008e
:1035e40014f40700e04f5000fdff3a009e007800fd
:1035f4000071220000017800110009008280d800c7
:103604008000fd0080007800803e200000017800ea
:10361400110009008280d8000003b000bff5070044
:103624000000000003f40700e04f5000fdff3a00e3
:103634009e007800803e20000001780011000900ff
:103644008280d8008000fd008000780040062000c1
:1036540000017800110009008280d8000003b00046
:10366400aef5070000000000f2f30700e04f500041
:10367400fdff3a009e00780040062000000178001b
:10368400110009008280d8008000fd0080007800cd
:10369400a000200000017800110009008280d800f9
:1036a4000003b0009df5070000000000e1f30700ef
:1036b400e04f5000fdff3a009e007800a00020007b
:1036c40000017800110009008280d8008000fd000c
:1036d4000003b00091f5070000000000d5f30700d7
:1036e400e04f5000fdff3a00e00220008bf5070098
:1036f40000000000cff30700e04f5000fdff3a0048
:103704009e009000803e2000000178001100090016
:103714008280d8000003b00080f50700000000009c
:10372400c4f30700e04f5000fdff3a009e009000f4
:10373400803e200000017800110009008280d8003a
:103744008000fd0080007800400620000001780021
:10375400110009008280d8000003b0006ff5070053
:1037640000000000b3f30700e04f5000fdff3a00f3
:103774009e0090004006200000017800110009001e
:103784008280d8008000fd0080007800a000200026
:1037940000017800110009008280d8000003b00005
:1037a4005ef5070000000000a2f30700e04f5000a0
:1037b400fdff3a009e009000a00020000001780068
:1037c400110009008280d8008000fd000003b000d1
:1037d40052f507000080fa00000006000200fa001b
:1037e400000f78000000000092f30700e04f500043
:1037f400fdff3a001e007800e0f407000080fa00a4
:10380400000006000000fa000000eb0060168800cb
:103814000000eb00e01688000000eb006017880051
:103824000000eb00a01788000000eb0010278800c0
:103834000000eb0060278800210007004800070013
:103844006600070020fe2800e4ff0700010037009f
:103854000000000046f40700e04f50000a00320068
:10386400f8f407000040780034eab70000000000d4
:1038740070f30700e04f5000fdff3a0034cabf0068
:103884000080fb0025f5070045f40700e04f5000d9
:10389400efff320005f507000040780034eab70076
:1038a400000000004df30700e04f5000fdff3a0018
:1038b40034cabf000080fb0009f50700e5ff3700ac
:1038c4000000fa00d962a900d942a800d922a900af
:1038d400d902a900d8c2a900d842a900d822a900b7
:1038e400d802a80011358000f00f2c008080600001
:1038f40000302000008070001035880051358000b1
:10390400f00f2c008080600000b020000080700068
:10391400503588006136800000fc2f000080600074
:10392400c001b300603688002136800000fc2f00ff
:1039340000806000d001b3002036880058f30700ef
:103944000000eb00d0f307009201200001402000aa
:103954002020280042f407000080fa00000006003e
:103964000000fa00c902a900c922a800c9c2a8001f
:10397400c9e2a900e882a8003135800000fc2f00cc
:1039840000806000e000b30030358800e13680003c
:10399400f00f2c0080806000005020000080700038
:1039a400e03688005116800000102000008070006e
:1039b4005016880032f307006006200079f30700f0
:1039c4009201200001402000000028000ff40700ad
:1039d400a3fb07000080fa00000006000000fa00c4
:1039e400f0c2a900f0e2a8002135800000fc2f00fd
:1039f40000806000a001b30020358800a13680005b
:103a0400f00f2c00808060000030200000807000e7
:103a1400a036880012f307000000eb0028f307002b
:103a2400920120000140200000002800e2f307007a
:103a34000080fa00000006003600f800809fbe00f7
:103a4400829fbe00849fbe00869fbe000200fa00d3
:103a540087c0a9003cfb0700004f78001e40780097
:103a6400e04f50000b00320000000000f1f20700ac
:103a7400e04f5000fdff3a001e00fb00a7f40700d2
:103a8400010037007cf40700bff30700e04f50004b
:103a9400fcff3a000080fa004f03be004f02be0054
:103aa4004f01be004f00be003600f9000040060082
:020000040000fa
:103ab400340a000002000000820000000000000040
:103ac400340900000001000080000000000800002c
:103ad4003401000080000000360a000002000000eb
:103ae4008200000000000000380a0000020000000c
:083af40080000000000000004a
:020000040000fa
:103afc000200fa00000f7800d01680001e00700043
:103b0c00d0168800003e2900410020000600070066
:103b1c009e80ea00d016800000806000d0168800dd
:083b2c000080fa000000060011
:020000040000fa
:103b3400f03fb1000180b10006003500ee0309003a
:103b440000000000403fb1000180b100fbff3d00d8
:103b54001000b000203fb0000200350000800900d2
:083b6400000000000000060053
:020000040000fa
:020000040005f5
:0457f800fff80000b6
:020000040000fa
:020000040005f5
:0457fc007f3f0000eb
:00000001FF
