:020000040000fa
:080000000002040000000000f2
:020000040000fa
:10000800c8020000c8020000c8020000c8020000c0
:10001800c8020000c8020000c8020000c8020000b0
:10002800c8020000c8020000c8020000c8020000a0
:10003800c8020000c8020000c8020000c802000090
:10004800c8020000c8020000c8020000c802000080
:10005800c8020000c8020000c8020000c802000070
:10006800c8020000c8020000c8020000c802000060
:10007800c8020000c8020000c8020000c802000050
:10008800c8020000c8020000c8020000c802000040
:10009800c8020000c8020000c8020000c802000030
:1000a800c8020000c8020000c8020000c802000020
:1000b800c8020000c8020000c8020000c802000010
:1000c800c8020000c8020000c8020000c802000000
:1000d800c8020000c8020000c8020000c8020000f0
:1000e800c8020000c8020000c8020000c8020000e0
:1000f800c8020000c8020000c8020000c8020000d0
:10010800c8020000c8020000c8020000c8020000bf
:10011800c8020000c8020000c8020000c8020000af
:10012800c8020000c8020000c8020000c80200009f
:10013800c8020000c8020000c8020000c80200008f
:10014800c8020000c8020000c8020000c80200007f
:10015800c8020000c8020000c8020000c80200006f
:10016800c8020000c80200007e0500003e0500002d
:10017800c8020000c8020000c8020000c80200004f
:10018800c8020000c8020000c8020000c80200003f
:10019800c8020000c8020000c8020000c80200002f
:1001a800c8020000c8020000c8020000c80200001f
:1001b800c8020000c8020000c8020000c80200000f
:1001c800c8020000c8020000c8020000c8020000ff
:1001d800c8020000c8020000c8020000c8020000ef
:1001e800c8020000c8020000c8020000c8020000df
:0801f800c8020000c80200006b
:020000040000fa
:10020800c8020000c8020000c8020000c8020000be
:10021800c8020000c8020000c8020000c8020000ae
:10022800c8020000c8020000c8020000c80200009e
:10023800c8020000c8020000c8020000c80200008e
:10024800c8020000c8020000c8020000c80200007e
:10025800c8020000c8020000c8020000c80200006e
:10026800c8020000c8020000c8020000c80200005e
:10027800c8020000c8020000c8020000c80200004e
:10028800c8020000c8020000c8020000c80200003e
:10029800c8020000c8020000c8020000c80200002e
:1002a800c8020000c8020000c8020000c80200001e
:1002b800c8020000c8020000c8020000c80200000e
:1002c800c8020000c8020000c8020000c8020000fe
:1002d800c8020000c8020000c8020000c8020000ee
:1002e800c8020000c8020000c8020000c8020000de
:1002f800c8020000c8020000c8020000c8020000ce
:10030800c8020000c8020000c8020000c8020000bd
:10031800c8020000c8020000c8020000c8020000ad
:10032800c8020000c8020000c8020000c80200009d
:10033800c8020000c8020000c8020000c80200008d
:10034800c8020000c8020000c8020000c80200007d
:10035800c8020000c8020000c8020000c80200006d
:10036800c8020000c80200007e0500003e0500002b
:10037800c8020000c8020000c8020000c80200004d
:10038800c8020000c8020000c8020000c80200003d
:10039800c8020000c8020000c8020000c80200002d
:1003a800c8020000c8020000c8020000c80200001d
:1003b800c8020000c8020000c8020000c80200000d
:1003c800c8020000c8020000c8020000c8020000fd
:1003d800c8020000c8020000c8020000c8020000ed
:1003e800c8020000c8020000c8020000c8020000dd
:0803f800c8020000c802000069
:020000040000fa
:100400004f9020000eff27000e0188000000000022
:100410000c000700405d2000010020000f000700d5
:10042000000020000000e000020032000000020096
:100430000000000080040200000000000040da001c
:100440000000fe00000020000000e000020032007a
:10045000000020009001880000000600a102880032
:10046000800078000000eb001a003700e2804000b6
:1004700054a0b4009101ba00e280400054a0b4003e
:100480009102ba00e280400054a0b4000002eb00e8
:10049000472bde00f507b200a6018800602ce100c2
:1004a00008003a000049eb000201e80002003900b0
:1004b0003420ec0002f0a0008301e900f9ff3e00c7
:1004c000040037006128e100010032000082eb00e7
:1004d000040007001101ba000200e000e3ff3a0047
:1004e0000000060004d0a300e20f49001c00390000
:1004f000810278003549ba000201e80002003900a3
:100500003420ec0002f0a0008301e9000f0032006b
:100510002549ba000201e800020039003420ec004d
:1005200002f0a0008301e900080032000400e000ae
:100530000600320015c9ba000201e80002003900c5
:100540003420ec0002f0a0008301e9008180e80083
:1005500054a0b4000300e000e2ff3a0000000600ef
:100560009102ba00055978008301e900f7ff3200d3
:10057000c82ade00055978008301e900f3ff320044
:100580000400e000f1ff320011d9ba00eeff37009d
:100590000040da000000fe000000fa009112800026
:1005a000001020000081600010c0b3008000eb004c
:1005b000810f5100010032000040eb000080fa0082
:1005c000000006000000fa0031e2a90097c0a9006f
:1005d00097e0a90087c0a90087e0a9000080fa0081
:1005e000000006000000fa0051e2a9009e40a900a8
:1005f0009e60a9008e40a9008e60a9000080fa00cc
:10060000000006000200fa00000f780087c0a90071
:1006100087e0a9001e007800004078006740600075
:1006200067406000674060000080fb00670060007a
:100630004800dd0092058000f18f2f0081006100ed
:100640000080700090058800000720001e006000f8
:100650004400de0000407800674060000080fb003e
:10066000670060004c00dd0092058000f1ff28006b
:100670008100610000807000900588009e00780075
:10068000688060004300de00004078006140600048
:100690000080fb00610060004e00dd00b2048000bd
:1006a000f1ff2b008100610000807000b004880021
:1006b000000820001e0060004700de0000407800b7
:1006c000614060000080fb004f00dd00b20480004c
:1006d000f1ff27008100610000807000b0048800f5
:1006e0000080fa00000006000200fa00000f780007
:1006f0008e40a9008e60a9001e007800004078009e
:100700006740600067406000674060000080fb0059
:10071000670060004800dd0062068000f18f2f0056
:1007200081006100008070006006880000072000e2
:100730001e0060004400de0000407800674060005a
:100740000080fb00670060004c00dd006206800056
:10075000f1ff2800810061000080700060068800c1
:100760009e007800688060004300de000040780052
:10077000614060000080fb00610060004200dd001d
:10078000f2048000b1ff2f00810061000080700042
:10079000f0048800000820001e0060004700de0012
:1007a00000407800614060000080fb006100600054
:1007b0004300dd00f204800071ff2f008100610022
:1007c00000807000f00488000080fa00000006003d
:1007d0000000fa0090128000004078006140600044
:1007e0000080fa00000006000800fa0010079800d8
:1007f00021079800320798003e009000c011880041
:100800001e009000801188002e009000901188003a
:1008100002003700b0118000004f78009011800076
:10082000e10060000000eb00808f5000f9ff3a000b
:1008300087c0a9000080fa00000006000800fa0046
:100840001007980021079800320798003e0090009a
:10085000c01288001e009000801288002e009000b8
:100860009012880002003700b0128000004f78001c
:1008700090128000e10060000000eb00808f5000cb
:10088000f9ff3a008e40a9000080fa00000006003f
:100890000000fa0080128000e60060006000200086
:1008a000808f500002003a00b01280000300370031
:1008b000b1128000f00f2000008060000080fa007c
:1008c000000006000200fa00000f7800801280008d
:1008d000e600600060002000808f500003003a00b6
:1008e0001e007800a012880003003700f00f2000df
:1008f0001e006000a01288000080fa0000000600c0
:020000040000fa
:100900000000fa000000eb00601688000000eb0019
:10091000e01688000000eb00601788000000eb0084
:1009200010278800200007000000eb0044000700ab
:1009300000202100a10720008d000700faff3700ea
:100940000000fa00c902a900c922a800c9c2a80073
:10095000c9e2a900e882a8003135800000fc2f0020
:1009600000806000e000b30030358800e136800090
:10097000f00f2c008080600000502000008070008c
:10098000e03688000fff0700f00f20001dff070072
:1009900092012000014020000000280092ff070083
:1009a0000080fa00000006000000fa00d962a900e9
:1009b000d942a800d922a900d902a900d8c2a90009
:1009c000d802a80011358000f00f2c008080600054
:1009d0000030200000807000103588005135800004
:1009e000f00f2c008080600000b0200000807000bc
:1009f000503588006136800000fc2f0000806000c8
:100a0000c001b300603688002136800000fc2f0052
:100a100000806000d001b30020368800f1fe07009e
:100a2000f00f200030ff070082002000014020006e
:100a3000a020280081ff07000080fa0000000600c7
:100a40000200fa00000f7800d1168000001020008c
:100a500000807000d0168800007c220091002000e9
:100a600043000700d1168000f0ef2f0000806000e7
:100a7000d01688000080fa00000006003600f8005a
:100a8000809fbe00829fbe00849fbe00869fbe00e6
:100a90000000fa008e60a90011488000008020004c
:100aa0000080400010407800e04f50000c00320001
:100ab00000000000b8fe0700e04f5000fdff3a00c4
:100ac0001148800000802000008040001040780025
:100ad0000080fb008100e8001148880079ff0700d2
:100ae0000080fa004f03be004f02be004f01be005f
:100af0004f00be003600f900004006003600f80046
:100b0000809fbe00829fbe00849fbe00869fbe0065
:100b1000881f78000000fa008e40a9000000000045
:100b20002bff0700e04f5000fdff32000848800017
:100b300057ff07000040780001802000810044003a
:100b4000804878000800e800004888008e60a8000f
:100b50000080fa004f0478004f03be004f02be0031
:100b60004f01be004f00be003600f90000400600f5
:020000040000fa
:100b7000f03fb1000180b10006003500ee0309002e
:100b800000000000403fb1000180b100fbff3d00cc
:100b90001000b000203fb0000200350000800900c6
:080ba000000000000000060047
:020000040000fa
:100ba80000080000040100008000000000000000b0
:020000040000fa
:020000040005f5
:0457f800fff80000b6
:020000040000fa
:020000040005f5
:0457fc007f3f0000eb
:00000001FF
